:020000040800F2
:1000000068070020ED010008AD0A0008710A000829
:10001000A90A0008950200089711000800000000D6
:100020000000000000000000000000004D0D00086E
:1000300067080008000000009B0B0008CB0E0008BA
:10004000070200080702000807020008070200086C
:10005000070200080702000807020008070200085C
:10006000070200080702000807020008070200084C
:10007000070200080702000807020008070200083C
:10008000070200080702000807020008070200082C
:10009000070200080702000807020008070200081C
:1000A000070200080702000807020008070200080C
:1000B000390F0008070200080702000807020008BD
:1000C00007020008070200080702000807020008EC
:1000D00007020008B1100008070200080702000824
:1000E00007020008070200080702000800000000DD
:1000F0000000000000000000000000000000000000
:1001000000000000000000000702000807020008CD
:10011000070200080702000807020008070200089B
:10012000070200080702000807020008070200088B
:10013000070200080702000807020008070200087B
:10014000A5030008070200080702000807020008CC
:1001500000F002F800F03AF80AA090E8000C82449F
:100160008344AAF10107DA4501D100F02FF8AFF27C
:10017000090EBAE80F0013F0010F18BFFB1A43F085
:100180000103184798120000B8120000103A24BF6B
:1001900078C878C1FAD8520724BF30C830C144BFEC
:1001A00004680C607047000000230024002500262E
:1001B000103A28BF78C1FBD8520728BF30C148BFCA
:1001C0000B6070471FB51FBD10B510BD00F033F8B0
:1001D0001146FFF7F7FF01F0B9F800F051F803B44A
:1001E000FFF7F2FF03BC01F065F800000948804703
:1001F00009480047FEE7FEE7FEE7FEE7FEE7FEE709
:10020000FEE7FEE7FEE7FEE704480549054A064B20
:1002100070470000CD0E0008510100086801002061
:1002200068070020680300206803002070477047BB
:10023000704770477047754600F028F8AE460500D5
:100240006946534620F00700854618B020B5FFF7F1
:10025000DBFFBDE820404FF000064FF000074FF0F5
:1002600000084FF0000B21F00701AC46ACE8C009D4
:10027000ACE8C009ACE8C009ACE8C0098D467047DD
:100280000446AFF300802046FFF7A9FF00487047FF
:100290000401002000BFFEE72DE9F0418AB00446CA
:1002A0000D4616461F46DDF840800121092000F06A
:1002B00085FC01214FF0C06000F070FC0121364840
:1002C00000F08CFB2020ADF8240003208DF82600E0
:1002D00048208DF8270009A9304800F0F3FA4020A3
:1002E000ADF8240018208DF8270003208DF8260093
:1002F00009A92A4800F0E6FA00208DF81E008DF8C2
:100300001F008DF8200001208DF8210000208DF8BD
:1003100022008DF823008DF81A808DF81B408DF88F
:100320001C608DF81D50ADF8187006A91C4800F02F
:10033000D4F80E208DF8120000208DF81300012053
:100340008DF814000020ADF80800ADF80A00ADF8F3
:100350000C00ADF80E00ADF8100001208DF815006E
:1003600002A800F02DF8012202210D4800F0ACF89F
:1003700040208DF8040001208DF8050000208DF844
:10038000060001208DF8070001A800F091FB002075
:100390000AB0BDE8F081000040002000000C0140E0
:1003A0000068004000B585B06A460021034800F0AF
:1003B0004FF9684600F01CF905B000BD0068004028
:1003C00010B50021837A012202FA03F13D4A126836
:1003D00042F001023B4B1A603A4A1C3212688A43CF
:1003E000384B1C331A60027BCAB9364A0C32126889
:1003F0008A43344B0C331A604288C38842EA034371
:10040000304A4032847A42F834300288838842EAA3
:1004100003432C4A4032847A02EBC4025360027BCD
:10042000012A19D1274A0C3212680A43254B0C3392
:100430001A604288038842EA0343224A4032847A9F
:1004400042F83430C288838842EA03431D4A40326E
:10045000847A02EBC4025360C27A3AB9194A121D77
:1004600012688A43174B1B1D1A6006E0154A121DBD
:1004700012680A43134B1B1D1A60028932B9114AD4
:10048000143212688A430F4B14331A600289012A0E
:1004900006D10C4A143212680A430A4B14331A600C
:1004A000427B012A06D1074A1C3212680A43054BD7
:1004B0001C331A60034A126822F00102014B1A60D1
:1004C00010BD0000006600401AB143690B43436150
:1004D00002E043698B434361704730B50246002018
:1004E0000023146824F002041460146844F001042A
:1004F000146000E05B1C546804F001041CB94FF662
:10050000FF74A342F6D1546804F001040CB9002032
:100510006CE08C79012C04D1146844F080041460E0
:1005200003E0146824F080041460CC79012C04D119
:10053000146844F04004146003E0146824F040049C
:1005400014600C7A012C04D1146844F02004146067
:1005500003E0146824F0200414604C7A012C04D1C8
:10056000146844F01004146003E0146824F01004CC
:1005700014608C7A012C04D1146844F008041460CF
:1005800003E0146824F008041460CC7A012C04D130
:10059000146844F00404146003E0146824F00404B4
:1005A00014608C78A407CD7844EA05640D7944EA98
:1005B00005444D7944EA05540D886D1E2C43D461E1
:1005C000146824F001041460002300E05B1C5468EC
:1005D00004F001041CB14FF6FF74A342F6D1546835
:1005E00004F001040CB1002000E0012030BD000047
:1005F000014600200A68D2090F2A23D2DFE802F060
:10060000210822090A0B0C0D0E0F101112222000D6
:1006100018E000BF00BF00BF00BF00BF00BF00BFA9
:1006200010E000BF084A1268521C074B1A600020F5
:1006300003E00A5C054B1A54401C1428F9D301E06E
:1006400000E000BF00BF7047180000202800002015
:1006500010B500F5D87303EB01131B6803F0040316
:100660001372137A53B900F5D87303EB01131B68A7
:1006700040F2FF7404EA5353136009E000F5D873A5
:1006800003EB01131B686FF0604404EAD30353606B
:1006900000F5D87303EB01131B6803F002035372D8
:1006A00000F5D87303EB01135B6803F00F0393723B
:1006B00000F5D87303EB01135B681B0AD37400F5D4
:1006C000D87303EB01139B68D37200F5D87303EB67
:1006D00001139B681C0A147300F5D87303EB011314
:1006E0009B681C0C547300F5D87303EB01139B68D3
:1006F0001B0E937300F5D87303EB0113DB68D37300
:1007000000F5D87303EB0113DB681C0A147400F5C1
:10071000D87303EB0113DB681C0C547400F5D87319
:1007200003EB0113DB681B0E937421B9C36843F01C
:100730002003C36003E0036943F02003036110BD9D
:1007400010B502460020936803F08063B3F1806F18
:1007500000D110E0936803F00063B3F1006F01D1A2
:10076000012008E0936803F08053B3F1805F01D16A
:10077000022000E00420042874D002F5C07303EBCB
:1007800000131B6803F0010402F5C07303EB0013B0
:100790001C600B7A7BB94B7A0C8843EA445302F510
:1007A000C07404EB00142468234302F5C07404EB06
:1007B0000014236010E00B7A4C6843EAC4034C7ABF
:1007C000234302F5C07404EB00142468234302F5AC
:1007D000C07404EB001423608B7A03F00F038B7258
:1007E00002F5C07303EB00135B6823F00F0402F5FE
:1007F000C07303EB00135C6002F5C07303EB0013DE
:100800005B688C7A234302F5C07404EB00146360C8
:100810008B7B1C064B7B44EA03440B7B44EA03239B
:10082000CC7A234302F5C07404EB0014A3608B7CE4
:100830001C064B7C44EA03440B7C44EA0323CC7B38
:10084000234302F5C07404EB0014E36002F5C073A7
:1008500003EB00131B6843F0010402F5C07303EBC4
:1008600000131C6010BD70477CB5054680200190C8
:10087000022001AB002246F240010090284600F021
:100880008DFC04460CB120467CBD06200190022060
:1008900001AB002246F240010090284600F07EFCA9
:1008A00004460CB12046EFE70F200190022001AB77
:1008B000002246F240010090284600F06FFC0446FA
:1008C0002046E1E72DE9F041024600250026002000
:1008D00000230024002791F803C00CF00F0591F8C5
:1008E00003C00CF0100CBCF1000F03D091F802C053
:1008F0004CEA050591F800C0BCF1000F31D0146836
:1009000000202BE04FF0010C0CFA00F3B1F800C00E
:100910000CEA03069E4220D183004FF00F0C0CFA24
:1009200003F7BC4305FA03FC4CEA040491F803C046
:10093000BCF1280F06D14FF0010C0CFA00FCC2F8F4
:1009400014C00AE091F803C0BCF1480F05D14FF084
:10095000010C0CFA00FCC2F810C0401C0828D1D3CE
:100960001460B1F800C0BCF1FF0F34DD5468002002
:100970002EE000F1080C4FF0010808FA0CF3B1F872
:1009800000C00CEA03069E4221D183004FF00F0CF9
:100990000CFA03F7BC4305FA03FC4CEA040491F893
:1009A00003C0BCF1280F05D100F1080C08FA0CF8BF
:1009B000C2F8148091F803C0BCF1480F07D100F1D0
:1009C000080C4FF0010808FA0CF8C2F81080401C1F
:1009D0000828CED35460BDE8F0810000F0B50A4687
:1009E000002300240021002500F00046B6F1004F4E
:1009F00002D11D4EF16901E01B4E7168C0F3034541
:100A000083B200F44016B6F5401F08D121F07061A2
:100A1000154E766826F07066134F7E6012E000F483
:100A20008016B6F5801F06D1032606FA05F4A14309
:100A300041F0706106E0460D360103FA06F6B14357
:100A400041F0706122B1460D360103FA06F63143DA
:100A500000F00046B6F1004F02D1034EF16101E013
:100A6000014E7160F0BD000000000140416170471F
:100A700000BFFEE708B50121102000F09FF810200C
:100A80008DF803000220ADF8000003208DF802006D
:100A900069460448FFF716FF02210248FFF7E6FF08
:100AA00008BD00000010014000BFFEE770470000D5
:100AB00070B5002100230F22C47804B3154C2468BC
:100AC00004F4E064C4F5E064210AC1F10403CA40FF
:100AD000447804FA03F184781440214309010E4C50
:100AE0000678A155047804F01F050124AC40057870
:100AF0006D11AD0005F1E025C5F8004109E004786D
:100B000004F01F050124AC40044D0678761145F829
:100B1000264070BD0CED00E000E400E080E100E064
:100B200002490143024A1160704700000000FA05C3
:100B30000CED00E077B583B006461446042004AB04
:100B4000002246F27A010090304600F027FB05466D
:100B500015B1284606B070BD14B17F20029001E0A7
:100B60003F200290022002AB002246F2400100909A
:100B7000304600F013FB05462846EBE733B581B05D
:100B80000446042002AB002246F2FF0100902046FA
:100B900000F004FB054628463EBD704729B1064AD1
:100BA000D2690243044BDA6104E0034AD26982430A
:100BB000014BDA61704700000010024029B1064A7B
:100BC00092690243044B9A6104E0034A92698243AA
:100BD000014B9A6170470000001002402DE9F0437C
:100BE00085B080460D4691461C460C9E08F5C060B7
:100BF000009008208DF80A0000208DF808008DF87C
:100C0000090040208DF80B00E9B28DF80C10290A7C
:100C10008DF80D108DF80E90042704E000210DF1E1
:100C20000B00C1557F1C082FF8DB69463448FFF7DD
:100C300087FD0020334908603349086000F018F947
:100C400056E030480068012852D13048C07A8028E8
:100C500004D16FF0020005B0BDE8F0832B48017BA2
:100C60009DF80C0081420BD12848417B9DF80D0076
:100C7000814205D12548817B9DF80E00814202D03A
:100C80006FF00100E7E72148C07A43281AD04B28CB
:100C90000BD04F2829D1012E04D11C48C07B2070D5
:100CA0000020D8E74FF0FF30D5E7022E07D11748D4
:100CB000C07B20701548007C60700020CBE74FF0AF
:100CC000FF30C8E7042E0DD11048C07B20700F48BC
:100CD000007C60700D48407CA0700C48807CE07007
:100CE0000020B8E74FF0FF30B5E76FF00100B2E742
:100CF00005480068B0F57A7FA3DD6FF00300AAE72E
:100D00000068004018000020140000202800002087
:100D1000F8B505460C4604202346002246F264013D
:100D200000902846FFF75AFF06463046F8BDF8B552
:100D300005460C4602202346002246F2410100905F
:100D40002846FFF74BFF06463046F8BD704710B502
:100D500000F002F810BD00000CB5002001900090DA
:100D60003F48006840F480303D49086000BF3C487F
:100D7000006800F4003000900198401C0190009839
:100D800018B90198B0F5A06FF1D13548006800F4AA
:100D9000003010B10120009001E000200090009888
:100DA00001285CD12F48006840F010002D490860F0
:100DB0000846006820F0030008600846006840F01C
:100DC0000200086026484068254948600846406897
:100DD00048600846406840F4806048600846C06A41
:100DE000214908401E49C8620846C06A1F49084395
:100DF0001B49C8620846006840F08060086000BF78
:100E00001748006800F000600028F9D014484068D6
:100E100020F47C10124948600846406840F4E8100D
:100E200048600846006840F08070086000BF0C48C9
:100E3000006800F000700028F9D00948406820F0F0
:100E40000300074948600846406840F002004860D7
:100E500000BF0348406800F00C000828F9D10CBD21
:100E6000001002400020024000F0FEFF14080100C4
:100E700010B501210846FFF791FE0121880700F017
:100E80009EF810BD33B581B00446012002AB0022AC
:100E900046F260010090204600F080F905462846A1
:100EA0003EBD042808D14FF0E021096941F004015A
:100EB0004FF0E022116107E04FF0E021096921F0D5
:100EC00004014FF0E02211617047704710B51648D9
:100ED000006840F001001449086008464068134962
:100EE00008401149486008460068114908400E4909
:100EF00008600846006820F48020086008464068C2
:100F000020F4FE0048600846006820F0A050086009
:100F10004FF47F0088600020C862FFF718FF4FF091
:100F200000600449086010BD001002400000FFF09E
:100F3000FFFFF6FE08ED00E010B50121880700F084
:100F40004AF840B10121880700F036F802480068ED
:100F5000401C0149086010BD140000207FB5054603
:100F60000C4601210846FFF719FEADF80850ADF810
:100F700004400020ADF80600ADF80A0001A94FF0CA
:100F8000804000F043F801221146900700F034F849
:100F90000121880700F013F81C208DF800000120C3
:100FA0008DF8010003208DF8020001208DF8030068
:100FB0006846FFF77DFD7FBDCA430282704721B1BD
:100FC000028842F00102028004E002884FF6FE73BC
:100FD0001A400280704730B50246002000230024EA
:100FE000158A05EA0103958905EA010413B10CB1DC
:100FF000012000E0002030BD1AB183890B438381BA
:1010000002E083898B4383817047000000220288BD
:101010001D4B98420ED01D4B98420BD0B0F1804F23
:1010200008D01B4B984205D01A4B984202D01A4B5D
:10103000984204D14FF68F731A404B881A43174BCE
:10104000984207D0164B984204D04FF6FF431A40FF
:10105000CB881A4302808B8883850B8803850A4BD3
:1010600098420BD0094B984208D00E4B984205D0BD
:101070000D4B984202D00D4B984201D10B7A03865A
:101080000123838270470000002C0140003401409E
:101090000004004000080040000C00400010004028
:1010A000001400400040014000440140004801405D
:1010B00010B540F225511D4800F03EF810B31B4812
:1010C00000F064F8C4B21A48008800F40040C8B9BF
:1010D0001748008800F4804060B10A2C03D000203B
:1010E0001349088020E01248008840F4004010496D
:1010F000088019E00D2C06D10D48008840F480408E
:101100000B49088010E00A480088C0F30D00094927
:101110000C5407480088401C054908800846008890
:10112000C72801DD0020088010BD00000038014004
:10113000240000203C00002070B50246002400235B
:101140000025002040F66A16B14200D100BFC1F36D
:10115000421501F01F03012606FA03F3012D02D107
:101160009689334006E0022D02D1168A334001E011
:10117000968A33400C12012606FA04F4168834408D
:1011800013B10CB1012000E0002070BD0146888839
:10119000C0F30800704700BFFEE700002DE9F043F0
:1011A00085B081460E46174698460C9D09F5C060ED
:1011B000009008208DF80A0000208DF808008DF8B6
:1011C0000900012D03D12F208DF80B0010E0022D16
:1011D00003D12B208DF80B000AE0042D03D123202E
:1011E0008DF80B0004E04FF0FF3005B0BDE8F08350
:1011F000F1B28DF80C10310A8DF80D108DF80E70CB
:10120000042406E0201F18F800100DF10B00015512
:10121000641C281DA042F5DC2C1D04E000210DF10A
:101220000B000155641C082CF8DB69461D48FFF7CC
:1012300087FA00201C4908601C490860FFF718FE67
:1012400028E019480068012824D11948C07A80286C
:1012500002D16FF00200C8E71548017B9DF80C0031
:1012600081420BD11248417B9DF80D00814205D18E
:101270000F48817B9DF80E00814202D06FF0010083
:10128000B3E70B48C07A602802D06FF00100ACE7EA
:101290000020AAE705480068B0F57A7FD1DD6FF03D
:1012A0000300A2E70068004018000020140000209E
:1012B00028000020014600BF7047000010B56FF005
:1012C0000400FFF7EEFD0A4800680A49B0FBF1F0A0
:1012D000094908700846007800EB4001C1EBC010D6
:1012E0004FF6FF7101EAC0000449088010BD0000FC
:1012F0000000002000127A001C0000201E000020C8
:101300000146114A12884A434FF0E0235A610022F5
:101310009A611A46126942F001021A6100BF4FF049
:10132000E022106900F001021AB100F48032002AB4
:10133000F5D04FF0E022126922F001024FF0E023D5
:101340001A6100229A6170471E0000200EB54FF40A
:10135000FA644FF4A060FFF7E3FBFFF7AFFF002054
:101360000623082201210090FEF796FF41F61F4157
:101370000920FFF7F3FD6420FFF7C2FFFFF77AFBB8
:1013800003210220FFF77EFD0A20FFF7B9FF0121AC
:101390000846FFF777FD0220FFF766FA0A20FFF7FD
:1013A000AFFF0120FFF760FA0A20FFF7A9FF40F620
:1013B000B8310220FFF7E2FB0A20FFF7A1FF01226C
:1013C00021461046FFF7B6FB6420FFF799FF002087
:1013D000104908601CE002A90120FFF7A8FCB8B979
:1013E000BDF8080000F4806090B101A90120FFF76A
:1013F0008FFC6420FFF784FF06480068C04306495D
:10140000C1F88401012221461046FFF793FB644294
:10141000E1E7000084012242000022423C1400085F
:1014200000000020280000008C010008641400085F
:101430002800002040070000A801000800A24A047C
:101440000000000000000000010203040607080974
:10145000000000000000000000000000000000008C
:041460000000000088
:04000005080001519D
:00000001FF
